:020000040800F2
:100000008006002029020008670200086902000833
:100010006B0200086D0200086F020008000000007B
:100020000000000000000000000000007102000855
:100030007302000800000000750200087702000843
:1000400079020008790200087902000879020008A4
:100050007902000879020008790200087902000894
:100060007902000879020008790200087902000884
:100070007902000879020008790200087902000874
:100080007902000879020008790200087902000864
:100090007902000879020008790200087902000854
:1000A0007902000879020008790200087902000844
:1000B0007902000879020008790200087902000834
:1000C0007902000879020008790200087902000824
:1000D0007902000879020008790200087902000814
:1000E0007902000879020008790200087902000804
:1000F00079020008790200087902000879020008F4
:1001000079020008790200087902000879020008E3
:1001100079020008790200087902000879020008D3
:1001200079020008790200087902000879020008C3
:1001300079020008790200087902000879020008B3
:1001400079020008790200087902000879020008A3
:100150007902000879020008790200087902000893
:100160007902000879020008790200087902000883
:1001700079020008790200087902000800000000F6
:10018000790200087902000800F002F800F03CF85B
:100190000AA090E8000C82448344AAF10107DA45E2
:1001A00001D100F031F8AFF2090EBAE80F0013F0F8
:1001B000010F18BFFB1A43F0010318471405000094
:1001C00034050000103A24BF78C878C1FAD8520725
:1001D00024BF30C830C144BF04680C6070470000C1
:1001E0000023002400250026103A28BF78C1FBD840
:1001F000520728BF30C148BF0B6070471FB500F0E1
:1002000061FA1FBD10B510BD00F057F81146FFF799
:10021000F5FF00F091F900F075F803B4FFF7F2FF75
:1002200003BC00F07DF8000017481849184B9942AC
:100230003CBF50F8042B41F8042BF8D3154B16495A
:100240004FF000028B4238BF43F8042BFAD3DFF89B
:100250004C00016841F470010160BFF34F8FBFF3A0
:100260006F8F0F480047FEE7FEE7FEE7FEE7FEE779
:10027000FEE7FEE7FEE7FEE7FEE7000009480A4961
:100280000A4A0B4B70470000F006000800000020EF
:100290001C0000201C0000208006002088ED00E0EB
:1002A00089010008800000208006002080020020D4
:1002B00080020020704770477047754600F02CF8A8
:1002C000AE4605006946534620F00700854618B043
:1002D00020B5FFF7D3FFBDE820404FF000064FF0F8
:1002E00000074FF000084FF0000B21F00701AC466B
:1002F000ACE8C009ACE8C009ACE8C009ACE8C0098A
:100300008D46704710B50446AFF300802046BDE827
:100310001040FFF782BF0000004870471C0000201B
:1003200001491820ABBEFEE726000200704700001E
:100330005E49096821F007015C4A116011460968AD
:1003400041F0020111605A49096841F48071584A2C
:10035000116000BF5649096801F480610029F9D095
:1003600010205349496821F0F851514A5160114613
:10037000496841EA006151601146096821F08071C5
:10038000116000BF4A49096801F00071B1F1007FB6
:10039000F8D04749C96821F00301454AD1601146A8
:1003A000C96841F00201D1601146C96821F4FE41DB
:1003B00041F4A051D1601146C96821F0700141F0AB
:1003C0001001D1601146C96821F0C061D1601146A9
:1003D000C96841F08071D1601146096841F08071AF
:1003E000116000BF3249096801F000710029F9D09D
:1003F0002F49896821F003012D4A916011468968CF
:1004000041F00301916000BF2949896801F00C01A6
:100410000C29F9D12649896821F0F001244A91601C
:100420001146896821F4E06191601146896821F4E0
:10043000605191601146096821F08061116000BF30
:100440001B49096801F08061B1F1806FF8D018494B
:10045000096921F4FE41164A11611146096941F406
:10046000C05111611146096941F400311161114611
:10047000096941F4803111611146096841F08061D8
:10048000116000BF0A49096801F080610029F9D0B4
:1004900007498831096821F44001054AC2F88810EB
:1004A0001146096E41F400111166704700200240A8
:1004B000001002400A49096841F61F729143084A38
:1004C00011601146096800F01F021143044A1160CF
:1004D00011460968420941EA0221014A1160704748
:1004E0001408004800B5024600F008F800BF4FF0BD
:1004F0008040406A9042FAD300BD00000C48806DF5
:1005000040F001000A4988650A48890488624FF66C
:10051000FF70C8620846406940F001004861002051
:1005200048620846006840F001000860704700001B
:10053000001002407F380100FFF7FAFE5748C06CF8
:1005400040F004005549C8645548006800F0FC209C
:1005500053490860084600685249084350490860FA
:10056000081D006841F61F7188434D49091D086048
:100570000846006808604A480C30006800F0FC201B
:1005800047490C31086008460068086084E0464826
:10059000006898B1454800684549086043480068CC
:1005A00040084449086041480068800842490860A2
:1005B0003E480068C0084149086012E03B480068B6
:1005C0003B4908603948006840003A4908603748AC
:1005D000006880003849086034480068C000374926
:1005E000086000203649086035E031490968314A21
:1005F00012681143304A12681143304A126841EAC6
:100600000200FFF757FF0F20FFF76CFF284909682A
:10061000284A12681143284A126841EA0200FFF78B
:1006200049FF1420FFF75EFF21490968214A12683B
:1006300041EA0200FFF73EFF1920FFF753FF1C4875
:100640000068FFF737FF1E20FFF74CFF1C480068CB
:10065000401C1B4908601A4800680328C5DB124883
:10066000006828B11148006840001049086004E0A3
:100670000E48006840080D4908600C4800680128D1
:1006800002D10949086007E008480068B0F5007F1A
:1006900002D100200449086079E700000010024000
:1006A000000800485501550104000020000000200A
:1006B000080000200C000020100000201400002082
:1006C000180000204FF04070E1EE100A7047000063
:1006D000F0060008000000201C000000C401000813
:1006E0000C0700081C00002064060000E001000860
:1006F00000020000000000000000000000000000F8
:0C070000000000000000000000000000ED
:040000050800018965
:00000001FF
