:020000040800F2
:10000000600600200D0200084B0200084D020008A7
:100010004F020008510200085302000800000000CF
:100020000000000000000000000000005502000871
:100030005702000800000000590200085B02000897
:100040005D0200085D0200085D0200085D02000814
:100050005D0200085D0200085D0200085D02000804
:100060005D0200085D0200085D0200085D020008F4
:100070005D0200085D0200085D0200085D020008E4
:100080005D0200085D0200085D0200085D020008D4
:100090005D0200085D0200085D0200085D020008C4
:1000A0005D0200085D0200085D0200085D020008B4
:1000B0005D0200085D0200085D0200085D020008A4
:1000C0005D0200085D0200085D0200085D02000894
:1000D0005D0200085D0200085D0200085D02000884
:1000E0005D0200085D0200085D0200085D02000874
:1000F0005D0200085D0200085D0200085D02000864
:100100005D0200085D0200085D0200085D02000853
:100110005D0200085D0200085D0200085D02000843
:100120005D0200085D0200085D0200085D02000833
:100130005D0200085D0200085D0200085D02000823
:100140005D0200085D0200085D0200085D02000813
:100150005D0200085D0200085D0200085D02000803
:100160005D0200085D0200085D0200085D020008F3
:100170005D0200085D0200085D020008000000004A
:100180005D0200085D02000800F002F800F02EF8A1
:100190000AA090E8000C82448344AAF10107DA45E2
:1001A00001D100F023F8AFF2090EBAE80F0013F006
:1001B000010F18BFFB1A43F001031847700300003A
:1001C000800300000023002400250026103A28BFE9
:1001D00078C1FBD8520728BF30C148BF0B607047B9
:1001E0001FB500F09DF91FBD10B510BD00F057F808
:1001F0001146FFF7F5FF00F04FF900F075F803B472
:10020000FFF7F2FF03BC00F07DF800001748184923
:10021000184B99423CBF50F8042B41F8042BF8D3FB
:10022000154B16494FF000028B4238BF43F8042BA0
:10023000FAD3DFF84C00016841F470010160BFF3AC
:100240004F8FBFF36F8F0F480047FEE7FEE7FEE7D3
:10025000FEE7FEE7FEE7FEE7FEE7FEE7FEE700005B
:1002600009480A490A4A0B4B704700003C05000840
:100270000000002000000020000000206006002098
:1002800088ED00E089010008600000206006002081
:10029000600200206002002070477047704775467A
:1002A00000F02CF8AE4605006946534620F00700E2
:1002B000854618B020B5FFF7D3FFBDE820404FF0CA
:1002C00000064FF000074FF000084FF0000B21F040
:1002D0000701AC46ACE8C009ACE8C009ACE8C0090D
:1002E000ACE8C0098D46704710B50446AFF30080F6
:1002F0002046BDE81040FFF782BF0000004870476D
:100300000000002001491820ABBEFEE726000200D5
:10031000704700005E49096821F007015C4A1160DE
:100320001146096841F0020111605A49096841F417
:100330008071584A116000BF5649096801F4806114
:100340000029F9D010205349496821F0F851514A49
:1003500051601146496841EA0061516011460968DF
:1003600021F08071116000BF4A49096801F00071F5
:10037000B1F1007FF8D04749C96821F00301454A2F
:10038000D1601146C96841F00201D1601146C968C7
:1003900021F4FE4141F4A051D1601146C96821F019
:1003A000700141F01001D1601146C96821F0C061AF
:1003B000D1601146C96841F08071D1601146096869
:1003C00041F08071116000BF3249096801F000718D
:1003D0000029F9D02F49896821F003012D4A916045
:1003E0001146896841F00301916000BF294989687D
:1003F00001F00C010C29F9D12649896821F0F0019E
:10040000244A91601146896821F4E06191601146A7
:10041000896821F4605191601146096821F080617A
:10042000116000BF1B49096801F08061B1F1806F64
:10043000F8D01849096921F4FE41164A11611146A4
:10044000096941F4C05111611146096941F4003153
:1004500011611146096941F4803111611146096841
:1004600041F08061116000BF0A49096801F08061B4
:100470000029F9D007498831096821F44001054A6B
:10048000C2F888101146096E41F4001111667047D8
:100490000020024000100240FFF73CFF1D48C06CE6
:1004A00040F004001B49C8641B48006800F0FC20B1
:1004B0001949086008460068184908431649086049
:1004C000081D006841F61F7188431349091D086023
:1004D00008460068086010480C30006800F0FC20F6
:1004E0000D490C3108600846006808600A4814305D
:1004F000006841F61F7188430749143108600846B7
:10050000006841F61F71084303491431086000BFB9
:10051000FEE70000001002400008004855015501A8
:100520004FF04070E1EE100A704700003C050008F3
:0C0530000000002060060000C40100086C
:040000050800018965
:00000001FF
