:020000040800F2
:10000000680600202902000867020008690200084B
:100010006B0200086D0200086F020008000000007B
:100020000000000000000000000000007102000855
:100030007302000800000000750200087702000843
:1000400079020008790200087902000879020008A4
:100050007902000879020008790200087902000894
:100060007902000879020008790200087902000884
:100070007902000879020008790200087902000874
:100080007902000879020008790200087902000864
:100090007902000879020008790200087902000854
:1000A0007902000879020008790200087902000844
:1000B0007902000879020008790200087902000834
:1000C0007902000879020008790200087902000824
:1000D0007902000879020008790200087902000814
:1000E0007902000879020008790200087902000804
:1000F00079020008790200087902000879020008F4
:1001000079020008790200087902000879020008E3
:1001100079020008790200087902000879020008D3
:1001200079020008790200087902000879020008C3
:1001300079020008790200087902000879020008B3
:1001400079020008790200087902000879020008A3
:100150007902000879020008790200087902000893
:100160007902000879020008790200087902000883
:1001700079020008790200087902000800000000F6
:10018000790200087902000800F002F800F03CF85B
:100190000AA090E8000C82448344AAF10107DA45E2
:1001A00001D100F031F8AFF2090EBAE80F0013F0F8
:1001B000010F18BFFB1A43F001031847E4030000C6
:1001C00004040000103A24BF78C878C1FAD8520756
:1001D00024BF30C830C144BF04680C6070470000C1
:1001E0000023002400250026103A28BF78C1FBD840
:1001F000520728BF30C148BF0B6070471FB500F0E1
:10020000C9F91FBD10B510BD00F057F81146FFF732
:10021000F5FF00F04FF900F075F803B4FFF7F2FFB7
:1002200003BC00F07DF8000017481849184B9942AC
:100230003CBF50F8042B41F8042BF8D3154B16495A
:100240004FF000028B4238BF43F8042BFAD3DFF89B
:100250004C00016841F470010160BFF34F8FBFF3A0
:100260006F8F0F480047FEE7FEE7FEE7FEE7FEE779
:10027000FEE7FEE7FEE7FEE7FEE7000009480A4961
:100280000A4A0B4B70470000C00500080000002020
:1002900004000020040000206806002088ED00E033
:1002A000890100086800002068060020680200201C
:1002B00068020020704770477047754600F02CF8C0
:1002C000AE4605006946534620F00700854618B043
:1002D00020B5FFF7D3FFBDE820404FF000064FF0F8
:1002E00000074FF000084FF0000B21F00701AC466B
:1002F000ACE8C009ACE8C009ACE8C009ACE8C0098A
:100300008D46704710B50446AFF300802046BDE827
:100310001040FFF782BF0000004870470400002033
:1003200001491820ABBEFEE726000200704700001E
:100330005E49096821F007015C4A116011460968AD
:1003400041F0020111605A49096841F48071584A2C
:10035000116000BF5649096801F480610029F9D095
:1003600010205349496821F0F851514A5160114613
:10037000496841EA006151601146096821F08071C5
:10038000116000BF4A49096801F00071B1F1007FB6
:10039000F8D04749C96821F00301454AD1601146A8
:1003A000C96841F00201D1601146C96821F4FE41DB
:1003B00041F4A051D1601146C96821F0700141F0AB
:1003C0001001D1601146C96821F0C061D1601146A9
:1003D000C96841F08071D1601146096841F08071AF
:1003E000116000BF3249096801F000710029F9D09D
:1003F0002F49896821F003012D4A916011468968CF
:1004000041F00301916000BF2949896801F00C01A6
:100410000C29F9D12649896821F0F001244A91601C
:100420001146896821F4E06191601146896821F4E0
:10043000605191601146096821F08061116000BF30
:100440001B49096801F08061B1F1806FF8D018494B
:10045000096921F4FE41164A11611146096941F406
:10046000C05111611146096941F400311161114611
:10047000096941F4803111611146096841F08061D8
:10048000116000BF0A49096801F080610029F9D0B4
:1004900007498831096821F44001054AC2F88810EB
:1004A0001146096E41F400111166704700200240A8
:1004B00000100240FFF73CFF3348C06C40F00100E1
:1004C0003149C8640846C06C40F00400C8644FF06D
:1004D0009040006820F440604FF09041086008466A
:1004E000006840F4806008602848006820F04060A0
:1004F000264908600846006808604FF09040406850
:1005000020F020004FF09041486008464068486065
:100510000846C06820F44060C8600846C068C860EB
:100520001A480C30006820F0406018490C3108600F
:100530000846006808604FF09040406920F02000B5
:100540004FF0904148610846406940F02000486102
:1005500018E00DE00E48006850B14FF0904040693F
:1005600080F020004FF09041486100200849086069
:1005700006481030006800F400500028EAD101203D
:1005800003490860E5E70000001002400008004849
:10059000000000204FF04070E1EE100A70470000AC
:1005A000C00500080000002004000000C40100088D
:1005B000C40500080400002064060000E0010008F3
:0405C0000100000036
:040000050800018965
:00000001FF
