:020000040800F2
:10000000700A0020550200089302000895020008BB
:1000100097020008990200089B02000800000000F7
:100020000000000000000000000000009D02000829
:100030009F02000800000000A1020008A3020008BF
:10004000A5020008A5020008A5020008A5020008F4
:10005000A5020008A5020008A5020008A5020008E4
:10006000A5020008A5020008A5020008A5020008D4
:10007000A5020008A5020008A5020008A5020008C4
:10008000A5020008A5020008A5020008A5020008B4
:10009000A5020008A5020008A5020008A5020008A4
:1000A000A5020008A5020008A5020008A502000894
:1000B000A5020008A5020008A502000831050008F5
:1000C0002D050008A5020008A5020008A5020008E9
:1000D000A5020008A5020008A5020008A502000864
:1000E000A5020008A5020008A5020008A502000854
:1000F000A5020008A5020008A5020008A502000844
:10010000A5020008A5020008A5020008A502000833
:10011000A5020008A5020008A5020008A502000823
:10012000A5020008A5020008A5020008A502000813
:10013000A5020008A5020008A5020008A502000803
:10014000A5020008A5020008A5020008A5020008F3
:10015000A5020008A5020008A5020008A5020008E3
:10016000A5020008A5020008A5020008A5020008D3
:10017000A5020008A5020008A50200080000000072
:10018000A5020008A502000800F002F800F052F8ED
:1001900014A696E8000CB244B344DA4501D100F04D
:1001A00049F8BAE80F000FA696E83000A5EB040561
:1001B00004EB0607AAEB0704A7F101074FEA1515A0
:1001C0004FEA3414A4F10104AC4201D300F032F838
:1001D00013F0010F18BFFB1A43F0010300F001F800
:1001E000DBE718473C2200005C220000103A24BFE5
:1001F00078C878C1FAD8520724BF30C830C144BF8C
:1002000004680C6070470000704700000023002461
:1002100000250026103A28BF78C1FBD8520728BF16
:1002200030C148BF0B6070471FB500F03DFF1FBDD8
:1002300010B510BD00F044F91146FFF7F5FF00F0CE
:1002400055FC00F062F903B4FFF7F2FF03BC00F0C5
:1002500065F9000017481849184B99423CBF50F8FF
:10026000042B41F8042BF8D3154B16494FF000022C
:100270008B4238BF43F8042BFAD3DFF84C000168F7
:1002800041F470010160BFF34F8FBFF36F8F0F48D0
:100290000047FEE7FEE7FEE7FEE7FEE7FEE7FEE7D4
:1002A000FEE7FEE7FEE7000009480A490A4A0B4B51
:1002B00070470000402400080000002008000020D3
:1002C00008000020700A002088ED00E08901000885
:1002D00070040020700A00207006002070060020C4
:1002E00040EA0103024630B59B0710D14FF00134BC
:1002F00000E008C208C91D1B9D4315EAC41FF8D0C1
:1003000013F0FF0102F8011B0DD01B0AF8E711F8EA
:10031000013B002B02F8013B05D011F8013B002BFB
:1003200002F8013BF3D130BD10B5431C02E010F8D8
:10033000011B71B18107FAD14FF0013202C88C1A4A
:100340008C4314EAC211F9D0C01A0A0603D0C01EA9
:1003500010BDC01A10BD0A0401D0801E10BD0902D4
:10036000FCD0401E10BD032A40F2308010F0030C78
:1003700000F0158011F8013BBCF1020F624498BFF8
:1003800011F801CB00F8013B38BF11F8013BA2F195
:10039000040298BF00F801CB38BF00F8013B11F010
:1003A000030300F05780083AC0F0088051F8043B7E
:1003B000083A51F804CBA0E80810F5E7121D5CBF1D
:1003C00051F8043B40F8043BAFF30080D20724BF50
:1003D00011F8013B11F801CB48BF11F8012B24BFE4
:1003E00000F8013B00F801CB48BF00F8012B704733
:1003F00002F0FF0343EA032242EA024200F002B89D
:100400004FF0000200B5134694469646203922BFAD
:10041000A0E80C50A0E80C50B1F12001BFF4F7AFF8
:10042000090728BFA0E80C5048BF0CC05DF804EBDA
:10043000890028BF40F8042B08BF704748BF20F848
:10044000022B11F0804F18BF00F8012B7047704746
:100450007047704710B5203AC0F00B80B1E81850D3
:10046000A0E81850B1E81850A0E81850203ABFF49E
:10047000F5AF5FEA027C24BFB1E81850A0E818503D
:1004800044BF18C918C0BDE810405FEA827C24BF91
:1004900051F8043B40F8043B08BF7047D20728BF1F
:1004A00031F8023B48BF11F8012B28BF20F8023B6E
:1004B00048BF00F8012B7047004870470800002033
:1004C0007546FFF7F9FFAE4605006946534620F032
:1004D0000700854618B020B5FFF7E6FEBDE82040CE
:1004E0004FF000064FF000074FF000084FF0000BF0
:1004F000AC46ACE8C009ACE8C009ACE8C009ACE85F
:10050000C00921F007018D46704710B50446AFF3CE
:1005100000802046BDE81040FFF795BE0149182035
:10052000ABBEFEE7260002007047000070470000E7
:100530007047000041F24C00C4F20200016841F033
:100540000201016040F20040C4F60000016821F49D
:1005500070210160016841F420210160416A21F0AD
:10056000FF014162416A41F044014162816821F426
:1005700070218160816841F4A0218160C16821F40B
:100580007021C160C16841F4A021C160416841F49B
:10059000407141607047000010B545F20041C4F25F
:1005A0000001884214D045F60041C4F2000188429F
:1005B00017D045F60001C4F2000188422ED16FF435
:1005C000800C4FF4804E6FF440414FF4800310E0F4
:1005D0006FF4001C4FF4805E6FF440514FF4001331
:1005E00007E06FF4000C4FF4803E6FF440314FF49D
:1005F000000341F23802C4F20202146A1C4314627E
:10060000146D21401165116D41EA0E0111651168EB
:1006100019431160116801EA0C011160016821F0B1
:1006200001010160016821F480510160016821F439
:1006300070610160016841F0800101600021016189
:10064000016921F070410161016941F0E0410161FE
:10065000016941F00E010161016941F460610161CC
:10066000016941F480110161016941F400310161C6
:10067000816821F40041816048F252018160016883
:1006800021F400310160816821F4004181604168FA
:1006900021F400614160416841F0007141604168AE
:1006A00041F400414160016841F00101016010BD69
:1006B000002A4FF0FF0C18BF002B03D14FFA8CF02B
:1006C000704700BFD0F818C05FEA0C4CFAD480B570
:1006D000D0F804C049F6000ECFF6004E0CEA0E0C1E
:1006E00041EA0341614401F500514160BDE88040A9
:1006F00063B14FF0000C00BF8169C907FCD012F84C
:100700000C100CF1010C9C458162F5D18169490600
:100710005CBF81695FEAC161F8D58169C90642BFE2
:100720004FF0FF0C4FFA8CF07047416841F4804164
:10073000416000BF81698906FCD54FF0000C4FFA7B
:100740008CF0704741F24C00C4F2020001684FF691
:10075000004241F00401016040F60000C4F60000D0
:100760000168CFF60F4211400160016841F0550168
:100770000160704742F20001C4F20201086820F0F3
:10078000070008600A6841F2000042F00202C4F269
:1007900002000A60016841F4807101600168490546
:1007A000FCD5416821F0F8514160416841F0805129
:1007B0004160016821F08071016000BF016889011A
:1007C000FCD4C168142221F00301C160C16841F06A
:1007D0000201C160C16862F30E21C160C1680122DB
:1007E00062F30611C160C16821F0C061C160C168D7
:1007F00041F08071C160016841F08071016000BF0B
:1008000001688901FCD5816821F00301816081685C
:1008100041F00301816000BF816801F00C010C29E7
:10082000FAD1816821F0F0018160816821F4E061F2
:100830008160816821F460518160016821F08061EC
:10084000016000BF01684901FCD4016921F4FE4147
:100850000161016941F4C0510161016941F4003154
:100860000161016941F480310161016841F08061F9
:10087000016000BF01684901FCD5D0F8881021F45F
:100880004001C0F88810016E41F400110166704704
:1008900041F25802C4F202021368142143F001032A
:1008A000136043F67F02C4F20001C0F201024A6104
:1008B0004FF6FF728A610A6842F001020A60002264
:1008C0000A614FF08042136843F00103136000BFD8
:1008D0000A698242FCD370472DE9F0478BB07B4810
:1008E00007907AA041688268C0680A900020099247
:1008F0000891069079A14A688B68C96805910493AC
:10090000039276490291019000900690069903297E
:1009100010DC02A9012200BF069B51F82330019F81
:1009200002FA03F33B430193069B01330693069BB4
:10093000042BF1DB06900698032813DC42F21040EA
:10094000C0F60000012100BF069A50F82220009B4B
:1009500001FA02F21A430092069A01320692069AAE
:10096000042AF1DB40F61401C4F60001009B0F6875
:1009700041F2580027EA0303C4F202000B60036847
:10098000142243F67F0C43F00103C4F20002C0F2CC
:10099000010C03604FF6FF73C2F814C09361136833
:1009A00043F001031360002313614FF080431F687D
:1009B00047F001071F6000BF1369052BFCD351F8F6
:1009C000043C019F019E3B40B34203D1FF200BB08A
:1009D000BDE8F08700240694069B0DF1080E032B5A
:1009E0004FF000030FDC00BF51F8045C069B5EF87B
:1009F0002360069BF540ED0705D001330693069B67
:100A0000042BF1DB00230694069C032C4DDC42F200
:100A10001048C0F600084FF001094FF6FF7A002792
:100A20004FF08044009D0E6835430D60069D58F8D8
:100A300025500E6809FA05F526EA05050D600568DA
:100A400045F001050560C2F814C0C2F818A0156889
:100A500045F0010515601761256845F00105256021
:100A60001569052DFCD351F8045C5EF82360F54050
:100A7000ED071CD0056845F001050560C2F814C0FB
:100A8000C2F818A0156845F00105156017612568C2
:100A900045F00105256000BF1569142DFCD3069DA6
:100AA00001350695069D042DBCDBFF2004E0069869
:100AB00007AA02EB8000C05C51F8042C5EF823709A
:100AC000FA40D207F8D00BB0BDE8F087313233419D
:100AD00034353642373839432A3023440400000085
:100AE0000A0000000B0000000C00000088B0002687
:100AF000CDE904660396CDE90066FFF73BFEFFF7FC
:100B000019FD45F20040C4F20000FFF745FD00F07A
:100B100071F8002000F060F80220002100F0CAF90E
:100B200040F20007C2F20007D7E9001228A0012313
:100B300000F0A0FA00F0CAF941F28830FFF7A8FEF1
:100B4000FFF700FE002000F047F80220002100F02F
:100B5000B1F904AC6D4613E09DF80B0003996054A5
:100B60000398013003906420FFF792FE02200021D9
:100B700000F0A0F9D7E900122046012300F07AFA2C
:100B800000F0A4F9FFF7A8FE8DF80B009DF80B000C
:100B9000FF28E8D02046FFF7C7FB0828DCD128460D
:100BA0002146FFF79DFB0796079807280ADDDAE73D
:100BB0000798285C079960540798013007900798B8
:100BC0000828D0DA07980028F2D19DF80B00F1E749
:100BD0004D656F770000000080B50246002840F2A6
:100BE0007000C2F200004FF4806118BFFF22FFF7CF
:100BF000FFFB80BDF0B583B000250195019948F257
:100C0000A060C0F20100814206D200BF019901310B
:100C1000019101998142F9D345F2004440F26C06FA
:100C20004FF42E40C4F20004C2F20006ADF80A00F0
:100C30000DF10A022046782102233570FFF738FDB6
:100C40004FF400570DF10A02204678210223ADF837
:100C50000A70FFF72DFD0DF10A02204678210223CC
:100C6000ADF80A50FFF724FD4FF43040ADF80A000C
:100C70000DF10A02204678210223FFF719FD4FF4F7
:100C80004840ADF80A000DF10A02204678210223FF
:100C9000FFF70EFD0DF10A02204678210223ADF880
:100CA0000A50FFF705FD4FF48050ADF80A000DF132
:100CB0000A02204678210223FFF7FAFC4FF4804015
:100CC000ADF80A000DF10A02204678210223FFF751
:100CD000EFFC4FF40140ADF80A000DF10A02204686
:100CE00078210223FFF7E4FC4FF47F40ADF80A00BF
:100CF0000DF10A02204678210223FFF7D9FC4FF4B8
:100D00002140ADF80A000DF10A02204678210223A5
:100D1000FFF7CEFC4FF42640ADF80A000DF10A02B1
:100D2000204678210223FFF7C3FC4FF42840ADF89A
:100D30000A000DF10A02204678210223FFF7B8FCD1
:100D40004FF47C50ADF80A000DF10A0220467821DC
:100D50000223FFF7ADFC4FF42440ADF80A000DF17B
:100D60000A02204678210223FFF7A2FC4FF45340E9
:100D7000ADF80A000DF10A02204678210223FFF7A0
:100D800097FC0DF10A02204678210223ADF80A50A3
:100D9000FFF78EFC4FF45540ADF80A000DF10A0242
:100DA000204678210223FFF783FC4FF47040ADF812
:100DB0000A000DF10A02204678210223FFF778FC91
:100DC0004FF45940ADF80A000DF10A02204678218F
:100DD0000223FFF76DFC4FF40850ADF80A000DF147
:100DE0000A02204678210223FFF762FC4FF45A40A2
:100DF000ADF80A000DF10A02204678210223FFF720
:100E000057FC4FF49050ADF80A000DF10A0220464D
:100E100078210223FFF74CFC4FF45B40ADF80A0049
:100E20000DF10A02204678210223FFF741FC0DF163
:100E30000A02204678210223ADF80A70FFF738FC39
:100E40004FF40D40ADF80A000DF10A02204678215A
:100E50000223FFF72DFC4FF4A050ADF80A000DF16E
:100E60000A02204678210223FFF722FC012030707D
:100E70004FF42F40ADF80A000DF10A022046782108
:100E80000223FFF715FC40F27000C2F200004FF49D
:100E90008061FFF7B5FA00F019F840F26800C2F27D
:100EA0000000058040F26A00C2F20000058003B035
:100EB000F0BD000040F26802C2F20002108040F271
:100EC0006A00C2F200000180704700002DE9F04F77
:100ED000ADF2044D40F2700045F20044C2F2000051
:100EE0000DF10306C4F20004A0F1800506F1010B28
:100EF0004FF000084FF480594FF0400A002700BF20
:100F0000A7F150008DF804002046782132460223D4
:100F10008DF80380FFF7CCFB204678213246022370
:100F2000ADF80380FFF7C4FB204678213246022348
:100F3000ADF80390FFF7BCFB803558462946802268
:100F40008DF803A0FFF70FFA20467821324681235F
:100F5000FFF7AEFB0137082FD2D10DF2044D00F0A0
:100F600000B830BCBDE8C08F2DE9F04F84B00292CC
:100F7000A0F17F0212F15F0F13D340F26802C2F2B8
:100F80000002B2F800E05EFA81F2802A09D840F24D
:100F90006A02C2F2000216880A0A56FA82F7402F45
:100FA00003D9002004B000F061B8D2B2002AC9B25F
:100FB0000196039251D0039FA0F1200240F27006E7
:100FC0007A434FF00008C2F20006009205E000BF2D
:100FD000039A08F1010890453FD00029F8D0009A03
:100FE000029D424435F81240019A0127424402F022
:100FF0000705AF404FF478655FFA82FC87F0FF0980
:1010000005EA021A4FF0000B0AE000BF05EB0A02E6
:10101000B55C05EA0905B5540BF1010B5945D7D06C
:1010200004FA0BF50EEB0B022D04D5B208D5BCF17A
:101030003F0FF1D812F08002EED1012BE6D107E08C
:10104000BCF13F0FE8D812F08002E5D1002BDDD1D2
:1010500005EB0A02B55C3D43DDE740F268027144EE
:10106000C2F20002118004B000F000B830BCBDE84C
:10107000C08F0000F0B581B01C46037883B11546DF
:101080000E46471CD8B231462A462346FFF76CFF6E
:1010900017F8011C884204D117F8013B002BF1D14D
:1010A0000021084601B0F0BDF1EE100A4FF6FF71C5
:1010B000C0F2C03120EA010040F04070E1EE100AB9
:1010C0007047000000000000000000000000000069
:1010D0000000000000000000000000000000000010
:1010E0000000000000000000000000000000000000
:1010F000000000000000E003E003E003E003E00381
:10110000E003E003E003C003C003C001C001C0016D
:10111000C001C001000000000000E003E003E003A4
:10112000000000000000000000003C1E3C1E3C1EB1
:101130003C1E3C1E3C1E3C1E000000000000000047
:10114000000000000000000000000000000000009F
:101150000000000000000000000000000000CE01C0
:10116000CE03DE039E039C039C07FF3FFF7F3807EF
:10117000380F780F780F780EFFFFFFFFF01EF01C7E
:10118000E01CE03CE03DE039000000000000000011
:101190000000FC03FE0FEE1FE01EE01EE01EE01E3E
:1011A000E01FE00FE007F003FC01FE01FE01FE017D
:1011B000FE01FE01FE01FE3DFC3FF00FE001E001FB
:1011C000000000000000033E07F78FE78EE79EE374
:1011D000BCE3B8E7F8E7F0F7E03FC001FF03FF0723
:1011E000F307F30FF31EF33CF338F3787FF03FE09F
:1011F00000000000000000000000E007F80F780F7A
:10120000781F781F781F780FF00FE00F801FC37FC3
:10121000C3FBE7F3F7F1F7F0FFF07FF03EF87F7CD8
:10122000FF3FEF1F00000000000000000000E0038F
:10123000E003E003E003E003C003C001000000009E
:10124000000000000000000000000000000000009E
:10125000000000000000000000000000000000008E
:1012600000003F007C00F001E001C003C0078007E0
:101270008007800F000F000F000F000F000F000FFE
:10128000800F80078007C007C003E001F0017C00E9
:101290003F000F000000007E001FC007C003E001F8
:1012A000F001F000F000F800780078007800780095
:1012B00078007800F800F000F000F001E001C003D1
:1012C000C007001F007E00780000E003C003C001DB
:1012D000CE39FF3F7F3F20037003F807780F3C1F94
:1012E00038060000000000000000000000000000C0
:1012F00000000000000000000000000000000000EE
:1013000000000000000000000000C001C001C0019A
:10131000C001C001C001C001FFFFFFFFC001C0014B
:10132000C001C001C001C0010000000000000000B9
:1013300000000000000000000000000000000000AD
:10134000000000000000000000000000000000009D
:1013500000000000E003E003E003E003E001E0013F
:10136000E001C00180030000000000000000000058
:10137000000000000000000000000000FE3FFE3FF3
:10138000000000000000000000000000000000005D
:10139000000000000000000000000000000000004D
:1013A000000000000000000000000000000000003D
:1013B000000000000000000000000000E003E00367
:1013C000E003E003000000000000000000000F0048
:1013D0000F001E001E003C003C0078007800F0006A
:1013E000F000E001E001C003C00380078007000FA8
:1013F000000F001E001E003C003C0078007800F04A
:101400000000F007F80F7C1F3E3E1E3C1F7C1F7C37
:101410000F780F780F780F780F780F780F781F7C80
:101420001F7C1E3C3E3E7C1FF80FF00700000000B2
:10143000000000000000F000F007F03FF03FF00176
:10144000F001F001F001F001F001F001F001F00114
:10145000F001F001F001F001F001F001FF3FFF3F6A
:1014600000000000000000000000E00FF83F7C3C9E
:101470003C003E003E003E003C003C007C00F8008A
:10148000F001E003C0078007000F001E003E003C93
:10149000FE3FFE3F00000000000000000000F00FD3
:1014A000F81F7C1C3E003E003E003C003C00F80063
:1014B000F00FF80F7C003E001E001E001E001E00F4
:1014C0003E007C1CF81FE01F000000000000000030
:1014D00000007800F800F800F801F803F807F807B2
:1014E000780F781E781E783C78787878FFFFFFFFB9
:1014F000780078007800780078007800000000001C
:10150000000000000000FC1FFC1FFC1F001E001E4E
:10151000001E001E001EE01FF81FFC007C003E00A5
:101520003E001E003E003E003C007C1CF81FE01FF9
:1015300000000000000000000000FC01FE078E0F0C
:10154000001F001E003E003C003CF83DFC3F3E7F7B
:101550001F7E0F3C0F3C0F3C0F3C0F3E1F1E3E1FDB
:10156000FC0FF00300000000000000000000FF3F3F
:10157000FF3FFF3F0F001E001E003C0038007800B8
:10158000F000F000E001E001C003C0038007800F1D
:10159000800F000F001F001F00000000000000006F
:1015A0000000F807FC0F3E1F1E1E1E3E1E3E1E1EA4
:1015B0003C1FF80FF007F80FFC1E3E3E1F3C1F7C3F
:1015C0000F7C0F7C1F3C3E3FFC1FF007000000001B
:1015D000000000000000F007F80F7C1E3E3C1E3C9F
:1015E0001F7C1F7C1F7C1F7C1F3C3F3EFF1FEF07A3
:1015F0001F001E001E003E003C00F838F03FE01FB8
:1016000000000000000000000000000000000000DA
:10161000000000000000E003E003E003E00300003E
:10162000000000000000000000000000E003E003F4
:10163000E003E003000000000000000000000000E4
:1016400000000000000000000000E003E003E003F1
:10165000E0030000000000000000000000000000A7
:10166000E003E003E003E003E001E001E001C00388
:1016700080030000000000000000000000000300E4
:101680000F003F00FC00F003C00F003F00FE003FD2
:10169000C00FF003FC003F000F000300000000003B
:1016A000000000000000000000000000000000003A
:1016B00000000000000000000000FFFFFFFF00002E
:1016C00000000000FFFFFFFF00000000000000001E
:1016D000000000000000000000000000000000000A
:1016E00000000000000000E000F8007E801FE0071E
:1016F000F8017E001F007E00F801E007801F007ED9
:1017000000F800E000000000000000000000F01FF2
:10171000FC3F3E381F381F381E001E003C0078007A
:10172000F000E001C003C003C007C00700000000D4
:101730000000C007C007C007000000000000000054
:101740000000F803FE0F1E1F0F3E7F3CFF78EF796D
:10175000C773C7F38FF38FF38FF39FF39FF3FF7379
:10176000FF7BF779003C1C1FFC0FF8030000000012
:10177000000000000000000000000000E003E003A3
:10178000F007F007F007780F780F7C0E3C1E3C1E28
:101790003E3CFE3FFF3F1F780F780FF007F007F049
:1017A0000000000000000000000000000000000039
:1017B000F83FFC3F3E3C1E3C1E3C1E3C3E3C7C3CFD
:1017C000F03FF83F7E3C1F3C1F3C0F3C0F3C1F3C52
:1017D000FE3FF83F00000000000000000000000095
:1017E00000000000FF01FF07871F003E003C007C57
:1017F00000780078007800780078007C007C003E5B
:10180000003F831FFF07FF010000000000000000F1
:101810000000000000000000F07FFC7F7E781F7851
:101820001F780F780F780F780F780F780F780F7870
:101830000F781F781E787E78F87FE07F0000000028
:10184000000000000000000000000000FF3FFF3F1C
:10185000003E003E003E003E003E003EFE3FFE3F9A
:10186000003E003E003E003E003E003EFF3FFF3F88
:101870000000000000000000000000000000000068
:10188000FF1FFF1F001E001E001E001E001E001E68
:10189000FF1FFF1F001E001E001E001E001E001E58
:1018A000001E001E000000000000000000000000FC
:1018B00000000000FE03FF0F871F003E007C007C3D
:1018C000007800F800F87FF87FF80F780F7C0F7C25
:1018D0000F3E8F1FFF0FFE030000000000000000FE
:1018E00000000000000000001F7C1F7C1F7C1F7C8C
:1018F0001F7C1F7C1F7C1F7CFF7FFF7F1F7C1F7C4A
:101900001F7C1F7C1F7C1F7C1F7C1F7C0000000035
:10191000000000000000000000000000FF3FFF3F4B
:10192000E003E003E003E003E003E003E003E0039F
:10193000E003E003E003E003E003E003FF3FFF3FD9
:101940000000000000000000000000000000000097
:10195000FC1FFC1F7C007C007C007C007C007C0069
:101960007C007C007C007C007C0078007800F838EB
:10197000F03FC03F00000000000000000000000039
:10198000000000001F3C1E3C3C3C783CF03CE03D2D
:10199000E03FC03F803FC03FE03FF03DF03C783C3F
:1019A0007C3C3E3C1F3C0F3C00000000000000005F
:1019B0000000000000000000003E003E003E003E2F
:1019C000003E003E003E003E003E003E003E003E27
:1019D000003E003E003E003EFF3FFF3F0000000093
:1019E0000000000000000000000000001FF81FFCC5
:1019F0001FFC3FFE3FFE3FFE7FFF77FF77FFF7F7BD
:101A0000E7F7E7F3E7F3C7F307F007F007F007F0AE
:101A100000000000000000000000000000000000C6
:101A20000F7C0F7C0F7E0F7F0F7F8F7F8F7FCF7F8D
:101A3000EF7BEF79FF79FF78FF787F783F783F7809
:101A40001F781F7800000000000000000000000068
:101A500000000000F007FC1F3E3E1F7C0F780F784F
:101A60000FF80FF80FF80FF80FF80FF80F780F783E
:101A70001F7C3E3EFC1FF00700000000000000003D
:101A80000000000000000000FC3FFF3F1F3E0F3E33
:101A90000F3E0F3E0F3E1F3E3F3EFC3FF03F003EDD
:101AA000003E003E003E003E003E003E00000000C2
:101AB000000000000000000000000000F007FC1F14
:101AC0003E3E1F7C0F780F780FF80FF80FF80FF8D5
:101AD0000FF80FF80F780F781F7C3E3EFC1FF807B9
:101AE0007C003F000F000300000000000000000029
:101AF000F03FFC3F7E3C3E3C1E3C1E3C3E3C3C3CA2
:101B0000FC3CF03FE03FF03DF83C7C3C3E3C1E3C62
:101B10001F3C0F3C0000000000000000000000001F
:101B200000000000FC07FE1F0E3E003C003C003C95
:101B3000003EC01FF80FFE037F001F000F000F00C4
:101B40001F203E3CFC3FF01F000000000000000092
:101B50000000000000000000FFFFFFFFE003E003C3
:101B6000E003E003E003E003E003E003E003E0035D
:101B7000E003E003E003E003E003E0030000000013
:101B80000000000000000000000000000F7C0F7C3F
:101B90000F7C0F7C0F7C0F7C0F7C0F7C0F7C0F7CED
:101BA0000F7C0F7C0F7C1E3C1E3C3E3EFC1FF00752
:101BB0000000000000000000000000000000000025
:101BC00007F007F007F80F780F7C1E3C1E3C1E3E06
:101BD0003C1E3C1F781F780FF80FF007F007F00746
:101BE000E003E0030000000000000000000000002F
:101BF0000000000003E003F003F007F0E7F3E7F371
:101C0000E7F3E773F77BF77FFF7F7F7F7F7F7E7F41
:101C10007E3F3E3E3E3E3E3E000000000000000093
:101C2000000000000000000007F80F7C1E3E3E3E52
:101C30003C1FF80FF007E007E003E003F007F80FA0
:101C40007C0F7C1E3E3C1F780F780FF000000000D8
:101C500000000000000000000000000007F8077806
:101C60000F7C1E3C1E3E3C1F780FF80FF007E00370
:101C7000E003E003E003E003E003E003E003E0034C
:101C80000000000000000000000000000000000054
:101C9000FF7FFF7F0F001F003E007C00F800F00078
:101CA000E001E003C007800F000F001E003E007C33
:101CB000FF7FFF7F00000000000000000000FF0722
:101CC00080078007800780078007800780078007DC
:101CD00080078007800780078007800780078007CC
:101CE000800780078007800780078007FF07FF07BE
:101CF000000000780078003C003C001E001E000F31
:101D0000000F80078007C003C003E001E001F0007E
:101D1000F000780078003C003C001E001E000F0020
:101D20000F0007000000F07FF000F000F000F0006E
:101D3000F000F000F000F000F000F000F000F00023
:101D4000F000F000F000F000F000F000F000F00013
:101D5000F000F000F07FF07F0000C000C001C00183
:101D6000E003E003F007F0077807780F380F3C1E18
:101D70003C1E1E3C1E3C0F380F7807780000000008
:101D80000000000000000000000000000000000053
:101D90000000000000000000000000000000000043
:101DA0000000000000000000000000000000000033
:101DB0000000000000000000FFFFFFFF0000000027
:101DC0000000F00000000000000000000000000023
:101DD0000000000000000000000000000000000003
:101DE00000000000000000000000000000000000F3
:101DF00000000000000000000000000000000000E3
:101E00000000F80FFC3F7C3C3E003E003E00FE0719
:101E1000FE1F3E3E3E7C3E783E7C7E7CFF3FCF1FD9
:101E200000000000000000000000003C003C003CFE
:101E3000003C003C003CF83DFE3F3E3F1F3E0F3C57
:101E40000F3C0F3C0F3C0F3C0F3C1F3C1E3C3E3FE9
:101E5000FC3FF03B0000000000000000000000001C
:101E600000000000000000000000FE03FF0F871FBD
:101E7000003E003E003C007C007C007C003C003EBC
:101E8000003E871FFF0FFE0300000000000000005F
:101E900000001F001F001F001F001F001F00FF0782
:101EA000FF1F3F3E1F3C1F7C1F7C1F7C1F781F783D
:101EB0001F7C1F7C3F3C7F3EFF1FDF0F00000000A8
:101EC0000000000000000000000000000000000012
:101ED0000000F803FC0F3E1F1E3E1F3C1F7CFF7FCF
:101EE000FF7F007C007C003C003E071FFF0FFE03CD
:101EF00000000000000000000000FF01E103C0033B
:101F0000C007C007C007FF7FFF7FC007C007C0072B
:101F1000C007C007C007C007C007C007C007C00789
:101F2000C007C00700000000000000000000000023
:101F300000000000000000000000EF07FF1F7F3ED0
:101F40001F3C1F7C1F7C1F781F781F781F7C1F7C05
:101F50003F3C7F3EFF1FDF0F1E001E001E007C382F
:101F6000F83F003C003C003C003C003C003CFC3D99
:101F7000FE3F9E3F1F3F1F3E1F3C1F3C1F3C1F3C20
:101F80001F3C1F3C1F3C1F3C1F3C1F3C000000002F
:101F9000000000000000F001F0010000000000005F
:101FA0000000E07FE07FE001E001E001E001E0010E
:101FB000E001E001E001E001E001E001E001E00119
:101FC00000000000000000000000F800F800000021
:101FD000000000000000F83FF83FF800F800F800AB
:101FE000F800F800F800F800F800F800F800F80031
:101FF000F800F800F800F800F000F071E07F003C15
:10200000003C003C003C003C003C1F3C3E3C7C3C17
:10201000F83CF03DE03DC03FC03FE03FF03DF83CC4
:102020007C3C3E3C1F3C1F3C0000000000000000C8
:102030000000F07FF001F001F001F001F001F0018B
:10204000F001F001F001F001F001F001F001F00108
:10205000F001F001F001F001F001F00100000000DA
:102060000000000000000000000000000000000070
:1020700000009EF7FFFFFFFFFFFFE7FBE7F9C7F157
:10208000C7F1C7F1C7F1C7F1C7F1C7F1C7F1C7F190
:102090000000000000000000000000000000000040
:1020A000000000000000FC3DFE3F9E3F1F3F1F3E22
:1020B0001F3C1F3C1F3C1F3C1F3C1F3C1F3C1F3C48
:1020C0001F3C1F3C0000000000000000000000005A
:1020D00000000000000000000000F007FC1F3E3E72
:1020E0001F3C1F7C0F780F780F780F780F781F7CBC
:1020F0001F3C3E3EFC1FF0070000000000000000F7
:102100000000000000000000000000000000F83D9A
:10211000FE3F3E3F1F3E0F3C0F3C0F3C0F3C0F3C31
:102120000F3C1F3C1E3E3E3FFC3FF83F003C003C46
:10213000003C003C003C00000000000000000000EB
:102140000000EE07FE1F7E3E1E3C1E7C1E781E78A1
:102150001E781E781E781E7C3E7C7E3EFE1FDE0FA3
:102160001E001E001E001E001E00000000000000D9
:102170000000000000007F1FFF1FE71FC71F871F11
:10218000001F001F001F001F001F001F001F001F57
:10219000001F001F00000000000000000000000001
:1021A00000000000000000000000FC07FE1F0E1EE3
:1021B000003E003E003FE01FFC07FE003E001E0008
:1021C0001E003E3CFC3FF01F00000000000000002D
:1021D0000000000000000000800780078007FF7FEC
:1021E000FF7F8007800780078007800780078007C0
:1021F000800780078007C007FF03FF010000000081
:1022000000000000000000000000000000000000CE
:1022100000001E3C1E3C1E3C1E3C1E3C1E3C1E3C48
:102220001E3C1E3C1E3C3E3C7E3CFE3EFE1FDE0F26
:10223000000000000000000000000000000000009E
:1022400000000000000007F00F780F781E3C1E3CD5
:102250001E3E3C1E3C1E780F780FF00FF007F00773
:10226000E003E003000000000000000000000000A8
:102270000000000000000000000003F0E3F1E3F3C1
:10228000E7F3F7F3F7F3F77F777F7F7F7F7F7F7F3A
:102290003E3E3E3E3E3E3E3E00000000000000004E
:1022A00000000000000000000000000000000F7CA3
:1022B0001E3E3C3E3C1FF80FF007F007E003F0071E
:1022C000F807F80F7C1E3E3E1F3C1F780000000000
:1022D00000000000000000000000000000000000FE
:1022E000000007F80F780F7C1E3C1E3C3C1E3C1E75
:1022F0003C1F780FF80FF007F007E003E003C0037E
:10230000C003C0038007800F007F000000000000B2
:10231000000000000000FF3FFF3F1F003E007C0068
:10232000F800F001E003C007800F001F001E003C12
:10233000FF7FFF7F00000000000000000000FE01A2
:10234000E003C003C003C003C003E001E001E001FB
:10235000C001C003803F803FC003C001E001E00135
:10236000E001C003C003C003C003E003FE017E0020
:102370000000C001C001C001C001C001C001C00116
:10238000C001C001C001C001C001C001C001C00145
:10239000C001C001C001C001C001C001C001C00135
:1023A000C001C0010000C03FE003E001E001E00126
:1023B000E001C001C003C003C001E001FE00FE0057
:1023C000E001C001C003C003C001E001E001E00181
:1023D000E001E003C03F003F0000000000000000FB
:1023E00000000000000000000000000000000000ED
:1023F000073FC77FE773FFF17EF000000000000099
:1024000000000000000000000000000000000000CC
:1024100000000000010000000200000003000000B6
:10242000402400080000002008000000EC01000823
:102430004824000808000020680A00000C02000878
:08244000101A0000C210000890
:040000050800018965
:00000001FF
